:10026B00040C00000000011500010A00C101C102CD
:05027B00010800C100B4
:1001A600E51770787517011202528F16E514651659
:1001B600FF5516F510E516F45FF509851614AF1010
:1001C6007E00EF6401700A050BE50B64027002F510
:1001D6000BEF64024E7006E50B7002B202E5106486
:1001E6000C7009E50B64017003B20122AF107E00AA
:1001F600EF64047012E50B6401700C050AE50A64ED
:10020600057019750A0422EF64084E700FE50B6439
:0D021600017009150AE50AF47002F50A22CC
:10012200E50B14604704707BA203300001B35073E7
:10013200A2039200E4FDEDC39404748094805013F2
:10014200EDB508047F0180027F00740C2DF8A6072C
:100152000D80E330020B0508E50864047045F508DC
:1001620022E508700475080322150822E4FDEDC398
:10017200940474809480502BE50A75F019A4FFACA6
:1001820015ECC39FE5F06480F8748098500A300142
:10019200033003047F0180027F00740C2DF8A60750
:0301A2000D80CB02
:0101A5002237
:100281005389F0438901758CFC758A66C28DD2A9A8
:05029100D2AFD28C2267
:03000B0002009A56
:10009A00C0E0C0F0C083C082C0D075D000C000C02C
:1000AA0001C002C003C004C005C006C007758CFCAD
:1000BA00758A660517AF17EF640A7002F517AF1352
:1000CA00740C2FF8E6FDAF131202230513AF13EFDA
:1000DA0064047002F5130515AF15EF64647002F538
:1000EA00150512E51270020511FFAE11BE010EBF11
:1000FA00F40B751100751200A203B39203D007D056
:10010A0006D005D004D003D002D001D000D0D0D080
:08011A0082D083D0F0D0E03266
:0E0296001200031202811201A612012280F84A
:10025200E4FF2094010F20950343070220960343F5
:0802620007042097034307087D
:01026A002271
:0700030075A0FF4390F022FD
:10022300ED600FA8077401088002C333D8FC42189D
:10023300800EA8077401088002C333D8FCF4521857
:0E024300E51865196008E518F4F5A08518198E
:01025100228A
:0300000002000EED
:0C000E00787FE4F6D8FD758120020055D3
:10001A00020296E493A3F8E493A34003F68001F264
:10002A0008DFF48029E493A3F85407240CC8C333E7
:10003A00C4540F4420C8834004F456800146F6DFB6
:10004A00E4800B010204081020408090026BE47ED9
:10005A00019360BCA3FF543F30E509541FFEE493AB
:10006A00A360010ECF54C025E060A840B8E493A372
:10007A00FAE493A3F8E493A3C8C582C8CAC583CA9D
:10008A00F0A3C8C582C8CAC583CADFE9DEE780BE55
:01028000007D
:00000001FF
