:030000000200DB20
:0C00DB00787FE4F6D8FD75810B0200036D
:10006E0000000000000000007F0808087F003854E0
:10007E005454180000417F01000000417F01000030
:10008E003844444438000000007F2018207F003898
:10009E0044444438007C080404080000417F0100F9
:0F00AE0000182424287F0000000000000000003C
:10000300E4F508F509E4F50BC3E50B941474809447
:10001300805045E4F50AC3E50A940874809480503F
:1000230033E4F580E50A540FFFE59054F04FF59063
:100033007E00E509250AFFEE3508FE746E2FF58272
:1000430074003EF583E493F5807F017E001200BDCA
:10005300050A80C2050B80B00509E5097002050891
:0B006300D39447E5089400409C809572
:1000BD00D3EF9400EE940040147D6E7C00ED1D7026
:0D00CD00011CED4C70F7EF1F70E61E80E384
:0100DA002203
:00000001FF
