:03000000020437C0
:0C043700787FE4F6D8FD75810B020429E3
:1000030008F808080808F000203F2101010100005A
:1000130008F8888888887000203F2000030C30206F
:10002300E01008080810E0000F10202020100F0037
:10003300180808F8080818000000003F2000000016
:1000430008F88888E8081000203F202023201800A3
:1000530008F808000008F808001F202020201F00CF
:1000630000708808080838000038202121221C006D
:100073000000F8484848FF4848484848F80000004E
:1000830000000F0404043F444444444F4070000004
:10009300000002020202E2120A06020080000001CE
:1000A30001010141817F0101010101010100404181
:1000B300CE04008040BE828282BEC0404000000069
:1000C3007F20908040432C10102C43C040002021FF
:1000D3002EE4000020202020FF202020200000000C
:1000E3007F201008080000FF00000000000000004F
:1000F30000007E48484848484848CC0800000404AB
:100103000404040404244644201F00004020D04C6F
:10011300434448D8301000FC0000FF0000003F407B
:10012300404244437800000720403F0020242C3500
:10013300E6342C2400FC2424E222220021114D81E8
:100143007F05592118070000FF00000000F88C8B81
:1001530088F840308F08080808F80000007F101066
:10016300103F0000032640201F00004040C05F55A1
:1001730055D5555555555F4040400020203F151536
:1001830015FF4823150915236120004020F01C4763
:10019300444848FF48484C6840000000FF00404482
:1001A30044447F4444466440000001050971210131
:1001B300FF0141211D0901000001010101010101AC
:1001C300FF010101010101010000004060504844AA
:1001D3006322202028702000000000007F212121BD
:0901E300212121217F0000000010
:040443007F05DFFE54
:010447002292
:1003F2007DFAD3EF9400EE9400400FDDFE7DF9DD2F
:0A040200FE7DFAEF1F70EB1E80E88C
:01040C0022CD
:1003D400EFFD3395E0FC4D7005D2A5D2A622ED6465
:0E03E400014C7005D2A5C2A622C2A5D2A62247
:0E040D00C2A4C2A38F80120443D2A2C2A222B4
:0E041B00D2A4C2A38F80120443D2A2C2A22296
:10036A00E4FF1203D4E4FEEEFD3395E0FCC3ED9402
:10037A0008EC64809480502AEE24B8FF12040D7FA2
:10038A004012040DE4FDEDFB3395E0FAC3EB944013
:10039A00EA648094805008E4FF12041B0D80E70E83
:0203AA0080C50C
:0103AC00222E
:1003AD00E4FF1203D4C2A07F0A7E001203F2D2A092
:1003BD0012036A7FC012040D7F4012040D7FB81224
:0703CD00040D7F3F02040D47
:0402A7008F08A9050E
:1002AB00E4FEC3EB6480F8EE6480985065E4FDEDEA
:1002BB00F5823395E0F583C3E5829402E583648090
:1002CB009480504BE4FCECF5823395E0F583C3E569
:1002DB00829408E583648094805031E50824B82D1E
:1002EB00FF12040DE92440FFEE75F008A42F2CFF3C
:1002FB0012040DE50B2EC454F0FFED75F008A42F7E
:10030B002C90000393FF12041B0C80BA0D80A00EDF
:02031B008090D0
:01031D0022BD
:0601EC008F088D098B0A4B
:1001F200E4F9C3E50A6480F8E964809840030202E6
:10020200A6E4FDEDFF3395E0FEC3EF9402EE6480B9
:10021200948040030202A2E4FCECFF3395E0FEC3AB
:10022200EF9410EE648094805072E50824B82DFF9C
:1002320012040DE5092440FFE9C454F02F2CFF12EB
:10024200040DAF0BEF3395E0FEE9FB3395E0FAEBDB
:100252002FFFEA3EFEEF7805C333CE33CED8F9FB4B
:10026200AA06EDFF3395E0FEEFC4F8540FC868FF0D
:10027200EEC454F048FEEB2FFFEA3EFEECFB339552
:10028200E0FAEF2BFFEE3AFE74732FF58274003E14
:10029200F583E493FF12041B0C02021B0D020205FC
:0402A200090201F458
:0102A6002235
:10031E007F011203D4E4F50B7B037D281F1202A785
:10032E00E4F50B0BFD7F021201EC750B087B027DD1
:10033E00207F041201EC7F021203D4750B037B04A1
:10034E00E4FDFF1202A7750B04E4FD7F021201EC1F
:0C035E00750B0A7B02E4FD7F040201EC39
:0E0429001203AD12031E12036A12031E80FEA0
:00000001FF
