:0300000002010AF0
:0C010A00787FE4F6D8FD75810B02007CC4
:10009B0057656C636F6D6520746F004861726269A0
:0C00AB006E20496E7374697475746500F2
:10003C00E4FDFCC3ED9FEC9E5015E4FBFA0BBB00FA
:0F004C00010AEB64724A70F50DBD00010C80E4EF
:01005B002282
:0D00D000C2B18FA07F051200DDD2B27F0A01
:0A00DD00AE071FEE60030080F7225B
:0700E7007E0012003C7F388F
:0E00EE00C2B01200D0C2B27F027E0002003CFF
:0E00FC00D2B01200D0C2B27F017E0002003CE2
:10005C007F0F1200E77F051200E77F0C1200EE7F86
:10006C00061200EE7F011200EE7F057E0002003CBE
:060003008B088A09890A3E
:10000900EF64017007ED2480F50B8005ED24C0F540
:100019000BAF0B1200EEAB08AA09A90A1200B7FF31
:1000290060101200FC7401250AF50AE43509F50986
:0200390080E461
:01003B0022A2
:10007C0012005C7BFF7A00799B7D037F01120003E9
:0F008C007BFF7A0079A6E4FD7F0212000380FE5D
:1000B700BB010689828A83E0225002E722BBFE0247
:0900C700E32289828A83E493227A
:00000001FF
