:03000000020003F8
:0C000300787FE4F6D8FD75810A02004AFF
:03010400010A00ED
:0800EF007FB47E49DEFEDFFC58
:0100F70022E6
:04010000E4F5A02260
:1000C200ED600FA8077401088002C333D8FC420810
:1000D200800EA8077401088002C333D8FCF45208CA
:0C00E200E508650960068508A08508098E
:0100EE0022EF
:10008F00E4FCECC39408748094805015AF04ECB575
:10009F000A047D0180027D001200C21200EF0C8065
:1000AF00E1AF0A050AC3EF9408748094804003E41B
:0200BF00F50A40
:0100C100221C
:0800F80012010012008F80FBD1
:10000F000200F8E493A3F8E493A34003F68001F20F
:10001F0008DFF48029E493A3F85407240CC8C333F2
:10002F00C4540F4420C8834004F456800146F6DFC1
:10003F00E4800B0102040810204080900104E47E4C
:10004F00019360BCA3FF543F30E509541FFEE493B6
:10005F00A360010ECF54C025E060A840B8E493A37D
:10006F00FAE493A3F8E493A3C8C582C8CAC583CAA8
:10007F00F0A3C8C582C8CAC583CADFE9DEE780BE60
:0101070000F7
:00000001FF
